{
  "_format": "hh-sol-artifact-1",
  "contractName": "BankSafe",
  "sourceName": "contracts/BankSafe.sol",
  "abi": [
    {
      "inputs": [
        {
          "internalType": "address",
          "name": "_tokenAddress",
          "type": "address"
        },
        {
          "internalType": "uint256",
          "name": "_setTime",
          "type": "uint256"
        }
      ],
      "stateMutability": "nonpayable",
      "type": "constructor"
    },
    {
      "anonymous": false,
      "inputs": [
        {
          "indexed": false,
          "internalType": "address",
          "name": "user",
          "type": "address"
        },
        {
          "indexed": false,
          "internalType": "uint256",
          "name": "amount",
          "type": "uint256"
        }
      ],
      "name": "Deposited",
      "type": "event"
    },
    {
      "anonymous": false,
      "inputs": [
        {
          "indexed": true,
          "internalType": "address",
          "name": "previousOwner",
          "type": "address"
        },
        {
          "indexed": true,
          "internalType": "address",
          "name": "newOwner",
          "type": "address"
        }
      ],
      "name": "OwnershipTransferred",
      "type": "event"
    },
    {
      "anonymous": false,
      "inputs": [
        {
          "indexed": false,
          "internalType": "uint256",
          "name": "amount",
          "type": "uint256"
        }
      ],
      "name": "PoolUpgraded",
      "type": "event"
    },
    {
      "anonymous": false,
      "inputs": [
        {
          "indexed": false,
          "internalType": "address",
          "name": "user",
          "type": "address"
        },
        {
          "indexed": false,
          "internalType": "uint256",
          "name": "amount",
          "type": "uint256"
        }
      ],
      "name": "Withdrawn",
      "type": "event"
    },
    {
      "inputs": [
        {
          "internalType": "uint256",
          "name": "_amount",
          "type": "uint256"
        }
      ],
      "name": "addToPool",
      "outputs": [],
      "stateMutability": "nonpayable",
      "type": "function"
    },
    {
      "inputs": [],
      "name": "closeContract",
      "outputs": [],
      "stateMutability": "nonpayable",
      "type": "function"
    },
    {
      "inputs": [
        {
          "internalType": "uint256",
          "name": "_amount",
          "type": "uint256"
        }
      ],
      "name": "depositToken",
      "outputs": [],
      "stateMutability": "nonpayable",
      "type": "function"
    },
    {
      "inputs": [],
      "name": "destroy",
      "outputs": [],
      "stateMutability": "payable",
      "type": "function"
    },
    {
      "inputs": [
        {
          "internalType": "address",
          "name": "_recipient",
          "type": "address"
        }
      ],
      "name": "destroyAndSend",
      "outputs": [],
      "stateMutability": "nonpayable",
      "type": "function"
    },
    {
      "inputs": [],
      "name": "owner",
      "outputs": [
        {
          "internalType": "address",
          "name": "",
          "type": "address"
        }
      ],
      "stateMutability": "view",
      "type": "function"
    },
    {
      "inputs": [],
      "name": "renounceOwnership",
      "outputs": [],
      "stateMutability": "nonpayable",
      "type": "function"
    },
    {
      "inputs": [
        {
          "internalType": "address",
          "name": "newOwner",
          "type": "address"
        }
      ],
      "name": "transferOwnership",
      "outputs": [],
      "stateMutability": "nonpayable",
      "type": "function"
    },
    {
      "inputs": [
        {
          "internalType": "uint256",
          "name": "_amount",
          "type": "uint256"
        }
      ],
      "name": "withdrawToken",
      "outputs": [],
      "stateMutability": "nonpayable",
      "type": "function"
    },
    {
      "stateMutability": "payable",
      "type": "receive"
    }
  ],
  "bytecode": "0x608060405260006003554260045560006007553480156200001f57600080fd5b5060405162001e2c38038062001e2c833981810160405281019062000045919062000204565b62000065620000596200010a60201b60201c565b6200011260201b60201c565b33600160006101000a81548173ffffffffffffffffffffffffffffffffffffffff021916908373ffffffffffffffffffffffffffffffffffffffff1602179055508042620000b4919062000245565b6002819055508060058190555081600860006101000a81548173ffffffffffffffffffffffffffffffffffffffff021916908373ffffffffffffffffffffffffffffffffffffffff160217905550505062000343565b600033905090565b60008060009054906101000a900473ffffffffffffffffffffffffffffffffffffffff169050816000806101000a81548173ffffffffffffffffffffffffffffffffffffffff021916908373ffffffffffffffffffffffffffffffffffffffff1602179055508173ffffffffffffffffffffffffffffffffffffffff168173ffffffffffffffffffffffffffffffffffffffff167f8be0079c531659141344cd1fd0a4f28419497f9722a3daafe3b4186f6b6457e060405160405180910390a35050565b600081519050620001e7816200030f565b92915050565b600081519050620001fe8162000329565b92915050565b600080604083850312156200021857600080fd5b60006200022885828601620001d6565b92505060206200023b85828601620001ed565b9150509250929050565b60006200025282620002d6565b91506200025f83620002d6565b9250827fffffffffffffffffffffffffffffffffffffffffffffffffffffffffffffffff03821115620002975762000296620002e0565b5b828201905092915050565b6000620002af82620002b6565b9050919050565b600073ffffffffffffffffffffffffffffffffffffffff82169050919050565b6000819050919050565b7f4e487b7100000000000000000000000000000000000000000000000000000000600052601160045260246000fd5b6200031a81620002a2565b81146200032657600080fd5b50565b6200033481620002d6565b81146200034057600080fd5b50565b611ad980620003536000396000f3fe60806040526004361061008a5760003560e01c8063715018a611610059578063715018a61461012b57806383197ef0146101425780638da5cb5b1461014c578063f2fde38b14610177578063f5074f41146101a057610094565b80631c5fc4831461009957806350baa622146100c2578063610be654146100eb5780636215be771461010257610094565b3661009457600080fd5b600080fd5b3480156100a557600080fd5b506100c060048036038101906100bb9190611423565b6101c9565b005b3480156100ce57600080fd5b506100e960048036038101906100e49190611423565b610433565b005b3480156100f757600080fd5b50610100610847565b005b34801561010e57600080fd5b5061012960048036038101906101249190611423565b6109f3565b005b34801561013757600080fd5b50610140610eb6565b005b61014a610f3e565b005b34801561015857600080fd5b50610161610fdf565b60405161016e9190611588565b60405180910390f35b34801561018357600080fd5b5061019e600480360381019061019991906113d1565b611008565b005b3480156101ac57600080fd5b506101c760048036038101906101c291906113d1565b611100565b005b3373ffffffffffffffffffffffffffffffffffffffff16600160009054906101000a900473ffffffffffffffffffffffffffffffffffffffff1673ffffffffffffffffffffffffffffffffffffffff1614610259576040517f08c379a00000000000000000000000000000000000000000000000000000000081526004016102509061164c565b60405180910390fd5b6000600860009054906101000a900473ffffffffffffffffffffffffffffffffffffffff169050818173ffffffffffffffffffffffffffffffffffffffff1663dd62ed3e33306040518363ffffffff1660e01b81526004016102bc9291906115a3565b602060405180830381600087803b1580156102d657600080fd5b505af11580156102ea573d6000803e3d6000fd5b505050506040513d601f19601f8201168201806040525081019061030e919061144c565b101561034f576040517f08c379a00000000000000000000000000000000000000000000000000000000081526004016103469061166c565b60405180910390fd5b8073ffffffffffffffffffffffffffffffffffffffff166323b872dd3330856040518463ffffffff1660e01b815260040161038c939291906115cc565b602060405180830381600087803b1580156103a657600080fd5b505af11580156103ba573d6000803e3d6000fd5b505050506040513d601f19601f820116820180604052508101906103de91906113fa565b5081600360008282546103f19190611738565b925050819055507fab63b311ecf865d3c67a1154cf18ff6bc084ce3aac197fa2b92d54297549f70682604051610427919061170c565b60405180910390a15050565b600554600261044291906117bf565b600454426104509190611819565b11610490576040517f08c379a0000000000000000000000000000000000000000000000000000000008152600401610487906116ec565b60405180910390fd5b600061049b33611195565b9050600082826104ab9190611738565b90506000600960003373ffffffffffffffffffffffffffffffffffffffff1673ffffffffffffffffffffffffffffffffffffffff16815260200190815260200160002060010154905080841115610537576040517f08c379a000000000000000000000000000000000000000000000000000000000815260040161052e9061168c565b60405180910390fd5b6000600860009054906101000a900473ffffffffffffffffffffffffffffffffffffffff1690508073ffffffffffffffffffffffffffffffffffffffff1663a9059cbb33856040518363ffffffff1660e01b8152600401610599929190611603565b602060405180830381600087803b1580156105b357600080fd5b505af11580156105c7573d6000803e3d6000fd5b505050506040513d601f19601f820116820180604052508101906105eb91906113fa565b5083600360008282546105fe9190611819565b9250508190555081851415610714576001600760008282546106209190611819565b9250508190555060405180606001604052803373ffffffffffffffffffffffffffffffffffffffff1681526020016000815260200160001515815250600960003373ffffffffffffffffffffffffffffffffffffffff1673ffffffffffffffffffffffffffffffffffffffff16815260200190815260200160002060008201518160000160006101000a81548173ffffffffffffffffffffffffffffffffffffffff021916908373ffffffffffffffffffffffffffffffffffffffff1602179055506020820151816001015560408201518160020160006101000a81548160ff021916908315150217905550905050610807565b60405180606001604052803373ffffffffffffffffffffffffffffffffffffffff16815260200186846107479190611819565b815260200160011515815250600960003373ffffffffffffffffffffffffffffffffffffffff1673ffffffffffffffffffffffffffffffffffffffff16815260200190815260200160002060008201518160000160006101000a81548173ffffffffffffffffffffffffffffffffffffffff021916908373ffffffffffffffffffffffffffffffffffffffff1602179055506020820151816001015560408201518160020160006101000a81548160ff0219169083151502179055509050505b7f7084f5476618d8e60b11ef0d7d3f06914655adb8793e28ff7f018d4c76d505d53384604051610838929190611603565b60405180910390a15050505050565b3373ffffffffffffffffffffffffffffffffffffffff16600160009054906101000a900473ffffffffffffffffffffffffffffffffffffffff1673ffffffffffffffffffffffffffffffffffffffff16146108d7576040517f08c379a00000000000000000000000000000000000000000000000000000000081526004016108ce9061164c565b60405180910390fd5b6000600454426108e79190611819565b905060055460046108f891906117bf565b8111801561090857506000600754145b156109f0576000600860009054906101000a900473ffffffffffffffffffffffffffffffffffffffff1690508073ffffffffffffffffffffffffffffffffffffffff1663a9059cbb600160009054906101000a900473ffffffffffffffffffffffffffffffffffffffff166003546040518363ffffffff1660e01b8152600401610993929190611603565b602060405180830381600087803b1580156109ad57600080fd5b505af11580156109c1573d6000803e3d6000fd5b505050506040513d601f19601f820116820180604052508101906109e591906113fa565b506109ee610f3e565b505b50565b60055460045442610a049190611819565b1115610a45576040517f08c379a0000000000000000000000000000000000000000000000000000000008152600401610a3c906116cc565b60405180910390fd5b6000600860009054906101000a900473ffffffffffffffffffffffffffffffffffffffff169050818173ffffffffffffffffffffffffffffffffffffffff1663dd62ed3e33306040518363ffffffff1660e01b8152600401610aa89291906115a3565b602060405180830381600087803b158015610ac257600080fd5b505af1158015610ad6573d6000803e3d6000fd5b505050506040513d601f19601f82011682018060405250810190610afa919061144c565b1015610b3b576040517f08c379a0000000000000000000000000000000000000000000000000000000008152600401610b329061166c565b60405180910390fd5b8073ffffffffffffffffffffffffffffffffffffffff166323b872dd3330856040518463ffffffff1660e01b8152600401610b78939291906115cc565b602060405180830381600087803b158015610b9257600080fd5b505af1158015610ba6573d6000803e3d6000fd5b505050506040513d601f19601f82011682018060405250810190610bca91906113fa565b50600960003373ffffffffffffffffffffffffffffffffffffffff1673ffffffffffffffffffffffffffffffffffffffff16815260200190815260200160002060020160009054906101000a900460ff16610d255760405180606001604052803373ffffffffffffffffffffffffffffffffffffffff16815260200183815260200160011515815250600960003373ffffffffffffffffffffffffffffffffffffffff1673ffffffffffffffffffffffffffffffffffffffff16815260200190815260200160002060008201518160000160006101000a81548173ffffffffffffffffffffffffffffffffffffffff021916908373ffffffffffffffffffffffffffffffffffffffff1602179055506020820151816001015560408201518160020160006101000a81548160ff021916908315150217905550905050600160076000828254610d199190611738565b92505081905550610e60565b6000600960003373ffffffffffffffffffffffffffffffffffffffff1673ffffffffffffffffffffffffffffffffffffffff16815260200190815260200160002060010154905060405180606001604052803373ffffffffffffffffffffffffffffffffffffffff1681526020018285610d9f9190611738565b815260200160011515815250600960003373ffffffffffffffffffffffffffffffffffffffff1673ffffffffffffffffffffffffffffffffffffffff16815260200190815260200160002060008201518160000160006101000a81548173ffffffffffffffffffffffffffffffffffffffff021916908373ffffffffffffffffffffffffffffffffffffffff1602179055506020820151816001015560408201518160020160006101000a81548160ff021916908315150217905550905050505b8160066000828254610e729190611738565b925050819055507f2da466a7b24304f47e87fa2e1e5a81b9831ce54fec19055ce277ca2f39ba42c43383604051610eaa929190611603565b60405180910390a15050565b610ebe6112b1565b73ffffffffffffffffffffffffffffffffffffffff16610edc610fdf565b73ffffffffffffffffffffffffffffffffffffffff1614610f32576040517f08c379a0000000000000000000000000000000000000000000000000000000008152600401610f29906116ac565b60405180910390fd5b610f3c60006112b9565b565b610f466112b1565b73ffffffffffffffffffffffffffffffffffffffff16610f64610fdf565b73ffffffffffffffffffffffffffffffffffffffff1614610fba576040517f08c379a0000000000000000000000000000000000000000000000000000000008152600401610fb1906116ac565b60405180910390fd5b6000610fc4610fdf565b90508073ffffffffffffffffffffffffffffffffffffffff16ff5b60008060009054906101000a900473ffffffffffffffffffffffffffffffffffffffff16905090565b6110106112b1565b73ffffffffffffffffffffffffffffffffffffffff1661102e610fdf565b73ffffffffffffffffffffffffffffffffffffffff1614611084576040517f08c379a000000000000000000000000000000000000000000000000000000000815260040161107b906116ac565b60405180910390fd5b600073ffffffffffffffffffffffffffffffffffffffff168173ffffffffffffffffffffffffffffffffffffffff1614156110f4576040517f08c379a00000000000000000000000000000000000000000000000000000000081526004016110eb9061162c565b60405180910390fd5b6110fd816112b9565b50565b6111086112b1565b73ffffffffffffffffffffffffffffffffffffffff16611126610fdf565b73ffffffffffffffffffffffffffffffffffffffff161461117c576040517f08c379a0000000000000000000000000000000000000000000000000000000008152600401611173906116ac565b60405180910390fd5b8073ffffffffffffffffffffffffffffffffffffffff16ff5b600080600960008473ffffffffffffffffffffffffffffffffffffffff1673ffffffffffffffffffffffffffffffffffffffff1681526020019081526020016000206001015490506000600654826111ed919061178e565b90506000600454426111ff9190611819565b90506000600554600261121291906117bf565b821115611229576014816112269190611738565b90505b600554600361123891906117bf565b82111561124f57601e8161124c9190611738565b90505b600554600461125e91906117bf565b821115611275576032816112729190611738565b90505b60006064848361128591906117bf565b61128f919061178e565b90506000600354826112a191906117bf565b9050809650505050505050919050565b600033905090565b60008060009054906101000a900473ffffffffffffffffffffffffffffffffffffffff169050816000806101000a81548173ffffffffffffffffffffffffffffffffffffffff021916908373ffffffffffffffffffffffffffffffffffffffff1602179055508173ffffffffffffffffffffffffffffffffffffffff168173ffffffffffffffffffffffffffffffffffffffff167f8be0079c531659141344cd1fd0a4f28419497f9722a3daafe3b4186f6b6457e060405160405180910390a35050565b60008135905061138c81611a5e565b92915050565b6000815190506113a181611a75565b92915050565b6000813590506113b681611a8c565b92915050565b6000815190506113cb81611a8c565b92915050565b6000602082840312156113e357600080fd5b60006113f18482850161137d565b91505092915050565b60006020828403121561140c57600080fd5b600061141a84828501611392565b91505092915050565b60006020828403121561143557600080fd5b6000611443848285016113a7565b91505092915050565b60006020828403121561145e57600080fd5b600061146c848285016113bc565b91505092915050565b61147e8161184d565b82525050565b6000611491602683611727565b915061149c826118f3565b604082019050919050565b60006114b4601383611727565b91506114bf82611942565b602082019050919050565b60006114d7601a83611727565b91506114e28261196b565b602082019050919050565b60006114fa602b83611727565b915061150582611994565b604082019050919050565b600061151d602083611727565b9150611528826119e3565b602082019050919050565b6000611540601983611727565b915061154b82611a0c565b602082019050919050565b6000611563601f83611727565b915061156e82611a35565b602082019050919050565b6115828161188b565b82525050565b600060208201905061159d6000830184611475565b92915050565b60006040820190506115b86000830185611475565b6115c56020830184611475565b9392505050565b60006060820190506115e16000830186611475565b6115ee6020830185611475565b6115fb6040830184611579565b949350505050565b60006040820190506116186000830185611475565b6116256020830184611579565b9392505050565b6000602082019050818103600083015261164581611484565b9050919050565b60006020820190508181036000830152611665816114a7565b9050919050565b60006020820190508181036000830152611685816114ca565b9050919050565b600060208201905081810360008301526116a5816114ed565b9050919050565b600060208201905081810360008301526116c581611510565b9050919050565b600060208201905081810360008301526116e581611533565b9050919050565b6000602082019050818103600083015261170581611556565b9050919050565b60006020820190506117216000830184611579565b92915050565b600082825260208201905092915050565b60006117438261188b565b915061174e8361188b565b9250827fffffffffffffffffffffffffffffffffffffffffffffffffffffffffffffffff0382111561178357611782611895565b5b828201905092915050565b60006117998261188b565b91506117a48361188b565b9250826117b4576117b36118c4565b5b828204905092915050565b60006117ca8261188b565b91506117d58361188b565b9250817fffffffffffffffffffffffffffffffffffffffffffffffffffffffffffffffff048311821515161561180e5761180d611895565b5b828202905092915050565b60006118248261188b565b915061182f8361188b565b92508282101561184257611841611895565b5b828203905092915050565b60006118588261186b565b9050919050565b60008115159050919050565b600073ffffffffffffffffffffffffffffffffffffffff82169050919050565b6000819050919050565b7f4e487b7100000000000000000000000000000000000000000000000000000000600052601160045260246000fd5b7f4e487b7100000000000000000000000000000000000000000000000000000000600052601260045260246000fd5b7f4f776e61626c653a206e6577206f776e657220697320746865207a65726f206160008201527f6464726573730000000000000000000000000000000000000000000000000000602082015250565b7f756e617574686f72697a65642063616c6c657200000000000000000000000000600082015250565b7f4e6f7420656e6f75676820746f6b656e20616c6c6f77616e6365000000000000600082015250565b7f596f752063616e6e7074207769746864726177206d6f7265207468616e20796f60008201527f75206465706f7369746564000000000000000000000000000000000000000000602082015250565b7f4f776e61626c653a2063616c6c6572206973206e6f7420746865206f776e6572600082015250565b7f6465706f73697420706572696f64206973206578706972656400000000000000600082015250565b7f5374616b696e672072657761726473206e6f7420796574206d61747572656400600082015250565b611a678161184d565b8114611a7257600080fd5b50565b611a7e8161185f565b8114611a8957600080fd5b50565b611a958161188b565b8114611aa057600080fd5b5056fea2646970667358221220870a54a662d3a48cb75fd384e2b9073446c2221cb4bffeb332e0c4241a2d44a764736f6c63430008040033",
  "linkReferences": {},
  "deployedLinkReferences": {}
}