{
  "_format": "hh-sol-artifact-1",
  "contractName": "Destructible",
  "sourceName": "contracts/BankSafe.sol",
  "abi": [
    {
      "inputs": [],
      "stateMutability": "payable",
      "type": "constructor"
    },
    {
      "anonymous": false,
      "inputs": [
        {
          "indexed": true,
          "internalType": "address",
          "name": "previousOwner",
          "type": "address"
        },
        {
          "indexed": true,
          "internalType": "address",
          "name": "newOwner",
          "type": "address"
        }
      ],
      "name": "OwnershipTransferred",
      "type": "event"
    },
    {
      "inputs": [],
      "name": "destroy",
      "outputs": [],
      "stateMutability": "payable",
      "type": "function"
    },
    {
      "inputs": [
        {
          "internalType": "address",
          "name": "_recipient",
          "type": "address"
        }
      ],
      "name": "destroyAndSend",
      "outputs": [],
      "stateMutability": "nonpayable",
      "type": "function"
    },
    {
      "inputs": [],
      "name": "owner",
      "outputs": [
        {
          "internalType": "address",
          "name": "",
          "type": "address"
        }
      ],
      "stateMutability": "view",
      "type": "function"
    },
    {
      "inputs": [],
      "name": "renounceOwnership",
      "outputs": [],
      "stateMutability": "nonpayable",
      "type": "function"
    },
    {
      "inputs": [
        {
          "internalType": "address",
          "name": "newOwner",
          "type": "address"
        }
      ],
      "name": "transferOwnership",
      "outputs": [],
      "stateMutability": "nonpayable",
      "type": "function"
    }
  ],
  "bytecode": "0x608060405261002061001561002560201b60201c565b61002d60201b60201c565b6100f1565b600033905090565b60008060009054906101000a900473ffffffffffffffffffffffffffffffffffffffff169050816000806101000a81548173ffffffffffffffffffffffffffffffffffffffff021916908373ffffffffffffffffffffffffffffffffffffffff1602179055508173ffffffffffffffffffffffffffffffffffffffff168173ffffffffffffffffffffffffffffffffffffffff167f8be0079c531659141344cd1fd0a4f28419497f9722a3daafe3b4186f6b6457e060405160405180910390a35050565b61068e806101006000396000f3fe60806040526004361061004a5760003560e01c8063715018a61461004f57806383197ef0146100665780638da5cb5b14610070578063f2fde38b1461009b578063f5074f41146100c4575b600080fd5b34801561005b57600080fd5b506100646100ed565b005b61006e610175565b005b34801561007c57600080fd5b50610085610216565b604051610092919061052b565b60405180910390f35b3480156100a757600080fd5b506100c260048036038101906100bd91906104ad565b61023f565b005b3480156100d057600080fd5b506100eb60048036038101906100e691906104ad565b610337565b005b6100f56103cc565b73ffffffffffffffffffffffffffffffffffffffff16610113610216565b73ffffffffffffffffffffffffffffffffffffffff1614610169576040517f08c379a000000000000000000000000000000000000000000000000000000000815260040161016090610566565b60405180910390fd5b61017360006103d4565b565b61017d6103cc565b73ffffffffffffffffffffffffffffffffffffffff1661019b610216565b73ffffffffffffffffffffffffffffffffffffffff16146101f1576040517f08c379a00000000000000000000000000000000000000000000000000000000081526004016101e890610566565b60405180910390fd5b60006101fb610216565b90508073ffffffffffffffffffffffffffffffffffffffff16ff5b60008060009054906101000a900473ffffffffffffffffffffffffffffffffffffffff16905090565b6102476103cc565b73ffffffffffffffffffffffffffffffffffffffff16610265610216565b73ffffffffffffffffffffffffffffffffffffffff16146102bb576040517f08c379a00000000000000000000000000000000000000000000000000000000081526004016102b290610566565b60405180910390fd5b600073ffffffffffffffffffffffffffffffffffffffff168173ffffffffffffffffffffffffffffffffffffffff16141561032b576040517f08c379a000000000000000000000000000000000000000000000000000000000815260040161032290610546565b60405180910390fd5b610334816103d4565b50565b61033f6103cc565b73ffffffffffffffffffffffffffffffffffffffff1661035d610216565b73ffffffffffffffffffffffffffffffffffffffff16146103b3576040517f08c379a00000000000000000000000000000000000000000000000000000000081526004016103aa90610566565b60405180910390fd5b8073ffffffffffffffffffffffffffffffffffffffff16ff5b600033905090565b60008060009054906101000a900473ffffffffffffffffffffffffffffffffffffffff169050816000806101000a81548173ffffffffffffffffffffffffffffffffffffffff021916908373ffffffffffffffffffffffffffffffffffffffff1602179055508173ffffffffffffffffffffffffffffffffffffffff168173ffffffffffffffffffffffffffffffffffffffff167f8be0079c531659141344cd1fd0a4f28419497f9722a3daafe3b4186f6b6457e060405160405180910390a35050565b6000813590506104a781610641565b92915050565b6000602082840312156104bf57600080fd5b60006104cd84828501610498565b91505092915050565b6104df81610597565b82525050565b60006104f2602683610586565b91506104fd826105c9565b604082019050919050565b6000610515602083610586565b915061052082610618565b602082019050919050565b600060208201905061054060008301846104d6565b92915050565b6000602082019050818103600083015261055f816104e5565b9050919050565b6000602082019050818103600083015261057f81610508565b9050919050565b600082825260208201905092915050565b60006105a2826105a9565b9050919050565b600073ffffffffffffffffffffffffffffffffffffffff82169050919050565b7f4f776e61626c653a206e6577206f776e657220697320746865207a65726f206160008201527f6464726573730000000000000000000000000000000000000000000000000000602082015250565b7f4f776e61626c653a2063616c6c6572206973206e6f7420746865206f776e6572600082015250565b61064a81610597565b811461065557600080fd5b5056fea2646970667358221220a1ddb8ddefed52fec25bf55caeb15aa17b21a8b0e3996bdaac911c0852ed827064736f6c63430008040033",
  "linkReferences": {},
  "deployedLinkReferences": {}
}