{
  "contractName": "BankSafe",
  "abi": [
    {
      "inputs": [
        {
          "internalType": "address",
          "name": "_tokenAddress",
          "type": "address"
        },
        {
          "internalType": "uint256",
          "name": "_setTime",
          "type": "uint256"
        }
      ],
      "stateMutability": "nonpayable",
      "type": "constructor"
    },
    {
      "anonymous": false,
      "inputs": [
        {
          "indexed": false,
          "internalType": "address",
          "name": "user",
          "type": "address"
        },
        {
          "indexed": false,
          "internalType": "uint256",
          "name": "amount",
          "type": "uint256"
        }
      ],
      "name": "Deposited",
      "type": "event"
    },
    {
      "anonymous": false,
      "inputs": [
        {
          "indexed": true,
          "internalType": "address",
          "name": "previousOwner",
          "type": "address"
        },
        {
          "indexed": true,
          "internalType": "address",
          "name": "newOwner",
          "type": "address"
        }
      ],
      "name": "OwnershipTransferred",
      "type": "event"
    },
    {
      "anonymous": false,
      "inputs": [
        {
          "indexed": false,
          "internalType": "uint256",
          "name": "amount",
          "type": "uint256"
        }
      ],
      "name": "PoolUpgraded",
      "type": "event"
    },
    {
      "anonymous": false,
      "inputs": [
        {
          "indexed": false,
          "internalType": "address",
          "name": "user",
          "type": "address"
        },
        {
          "indexed": false,
          "internalType": "uint256",
          "name": "amount",
          "type": "uint256"
        }
      ],
      "name": "Withdrawn",
      "type": "event"
    },
    {
      "inputs": [],
      "name": "destroy",
      "outputs": [],
      "stateMutability": "payable",
      "type": "function",
      "payable": true
    },
    {
      "inputs": [
        {
          "internalType": "address",
          "name": "_recipient",
          "type": "address"
        }
      ],
      "name": "destroyAndSend",
      "outputs": [],
      "stateMutability": "nonpayable",
      "type": "function"
    },
    {
      "inputs": [],
      "name": "owner",
      "outputs": [
        {
          "internalType": "address",
          "name": "",
          "type": "address"
        }
      ],
      "stateMutability": "view",
      "type": "function",
      "constant": true
    },
    {
      "inputs": [],
      "name": "renounceOwnership",
      "outputs": [],
      "stateMutability": "nonpayable",
      "type": "function"
    },
    {
      "inputs": [],
      "name": "setTime",
      "outputs": [
        {
          "internalType": "uint256",
          "name": "",
          "type": "uint256"
        }
      ],
      "stateMutability": "view",
      "type": "function",
      "constant": true
    },
    {
      "inputs": [],
      "name": "startTime",
      "outputs": [
        {
          "internalType": "uint256",
          "name": "",
          "type": "uint256"
        }
      ],
      "stateMutability": "view",
      "type": "function",
      "constant": true
    },
    {
      "inputs": [],
      "name": "timelock",
      "outputs": [
        {
          "internalType": "uint256",
          "name": "",
          "type": "uint256"
        }
      ],
      "stateMutability": "view",
      "type": "function",
      "constant": true
    },
    {
      "inputs": [],
      "name": "tokenAddress",
      "outputs": [
        {
          "internalType": "address",
          "name": "",
          "type": "address"
        }
      ],
      "stateMutability": "view",
      "type": "function",
      "constant": true
    },
    {
      "inputs": [],
      "name": "totalStaked",
      "outputs": [
        {
          "internalType": "uint256",
          "name": "",
          "type": "uint256"
        }
      ],
      "stateMutability": "view",
      "type": "function",
      "constant": true
    },
    {
      "inputs": [
        {
          "internalType": "address",
          "name": "newOwner",
          "type": "address"
        }
      ],
      "name": "transferOwnership",
      "outputs": [],
      "stateMutability": "nonpayable",
      "type": "function"
    },
    {
      "inputs": [
        {
          "internalType": "address",
          "name": "",
          "type": "address"
        }
      ],
      "name": "user",
      "outputs": [
        {
          "internalType": "address",
          "name": "userAddress",
          "type": "address"
        },
        {
          "internalType": "uint256",
          "name": "tokenAmount",
          "type": "uint256"
        },
        {
          "internalType": "bool",
          "name": "available",
          "type": "bool"
        }
      ],
      "stateMutability": "view",
      "type": "function",
      "constant": true
    },
    {
      "inputs": [],
      "name": "usersStaked",
      "outputs": [
        {
          "internalType": "uint256",
          "name": "",
          "type": "uint256"
        }
      ],
      "stateMutability": "view",
      "type": "function",
      "constant": true
    },
    {
      "stateMutability": "payable",
      "type": "receive",
      "payable": true
    },
    {
      "inputs": [
        {
          "internalType": "uint256",
          "name": "_amount",
          "type": "uint256"
        }
      ],
      "name": "depositToken",
      "outputs": [],
      "stateMutability": "nonpayable",
      "type": "function"
    },
    {
      "inputs": [
        {
          "internalType": "uint256",
          "name": "_amount",
          "type": "uint256"
        }
      ],
      "name": "addToPool",
      "outputs": [],
      "stateMutability": "nonpayable",
      "type": "function"
    },
    {
      "inputs": [
        {
          "internalType": "uint256",
          "name": "_amount",
          "type": "uint256"
        }
      ],
      "name": "withdrawToken",
      "outputs": [],
      "stateMutability": "nonpayable",
      "type": "function"
    },
    {
      "inputs": [],
      "name": "closeContract",
      "outputs": [],
      "stateMutability": "nonpayable",
      "type": "function"
    }
  ],
  "bytecode": "0x60806040526000600355426004556000600655600060075534801561002357600080fd5b5060405161116a38038061116a833981016040819052610042916100e2565b61004b33610092565b600180546001600160a01b03191633179055610067814261011a565b600255600555600880546001600160a01b0319166001600160a01b039290921691909117905561013e565b600080546001600160a01b038381166001600160a01b0319831681178455604051919092169283917f8be0079c531659141344cd1fd0a4f28419497f9722a3daafe3b4186f6b6457e09190a35050565b600080604083850312156100f4578182fd5b82516001600160a01b038116811461010a578283fd5b6020939093015192949293505050565b6000821982111561013957634e487b7160e01b81526011600452602481fd5b500190565b61101d8061014d6000396000f3fe6080604052600436106100f65760003560e01c806381e7e20e1161008a578063d33219b411610059578063d33219b4146102b0578063d9276a49146102c6578063f2fde38b146102dc578063f5074f41146102fc57600080fd5b806381e7e20e146101e657806383197ef0146102565780638da5cb5b1461025e5780639d76ea581461029057600080fd5b80636215be77116100c65780636215be7714610185578063715018a6146101a557806378e97925146101ba578063817b1cd2146101d057600080fd5b8062484a3b146101055780631c5fc4831461012e57806350baa62214610150578063610be6541461017057600080fd5b3661010057600080fd5b600080fd5b34801561011157600080fd5b5061011b60075481565b6040519081526020015b60405180910390f35b34801561013a57600080fd5b5061014e610149366004610efe565b61031c565b005b34801561015c57600080fd5b5061014e61016b366004610efe565b61051c565b34801561017c57600080fd5b5061014e6107f5565b34801561019157600080fd5b5061014e6101a0366004610efe565b610915565b3480156101b157600080fd5b5061014e610c42565b3480156101c657600080fd5b5061011b60045481565b3480156101dc57600080fd5b5061011b60065481565b3480156101f257600080fd5b5061022f610201366004610eb0565b6009602052600090815260409020805460018201546002909201546001600160a01b03909116919060ff1683565b604080516001600160a01b0390941684526020840192909252151590820152606001610125565b61014e610c78565b34801561026a57600080fd5b506000546001600160a01b03165b6040516001600160a01b039091168152602001610125565b34801561029c57600080fd5b50600854610278906001600160a01b031681565b3480156102bc57600080fd5b5061011b60025481565b3480156102d257600080fd5b5061011b60055481565b3480156102e857600080fd5b5061014e6102f7366004610eb0565b610cb1565b34801561030857600080fd5b5061014e610317366004610eb0565b610d49565b6001546001600160a01b031633146103715760405162461bcd60e51b81526020600482015260136024820152723ab730baba3437b934bd32b21031b0b63632b960691b60448201526064015b60405180910390fd5b600854604051636eb1769f60e11b81523360048201523060248201526001600160a01b03909116908290829063dd62ed3e90604401602060405180830381600087803b1580156103c057600080fd5b505af11580156103d4573d6000803e3d6000fd5b505050506040513d601f19601f820116820180604052508101906103f89190610f16565b10156104465760405162461bcd60e51b815260206004820152601a60248201527f4e6f7420656e6f75676820746f6b656e20616c6c6f77616e63650000000000006044820152606401610368565b6040516323b872dd60e01b8152336004820152306024820152604481018390526001600160a01b038216906323b872dd90606401602060405180830381600087803b15801561049457600080fd5b505af11580156104a8573d6000803e3d6000fd5b505050506040513d601f19601f820116820180604052508101906104cc9190610ede565b5081600360008282546104df9190610f63565b90915550506040518281527fab63b311ecf865d3c67a1154cf18ff6bc084ce3aac197fa2b92d54297549f706906020015b60405180910390a15050565b60055461052a906002610f9b565b6004546105379042610fba565b116105845760405162461bcd60e51b815260206004820152601f60248201527f5374616b696e672072657761726473206e6f7420796574206d617475726564006044820152606401610368565b600061058f33610d7f565b9050600061059d8383610f63565b33600090815260096020526040902060010154909150808411156106175760405162461bcd60e51b815260206004820152602b60248201527f596f752063616e6e7074207769746864726177206d6f7265207468616e20796f60448201526a1d4819195c1bdcda5d195960aa1b6064820152608401610368565b60085460405163a9059cbb60e01b8152336004820152602481018490526001600160a01b0390911690819063a9059cbb90604401602060405180830381600087803b15801561066557600080fd5b505af1158015610679573d6000803e3d6000fd5b505050506040513d601f19601f8201168201806040525081019061069d9190610ede565b5083600360008282546106b09190610fba565b90915550508482141561073c576001600760008282546106d09190610fba565b90915550506040805160608101825233808252600060208084018281528486018381529383526009909152939020915182546001600160a01b0319166001600160a01b039091161782559151600182015590516002909101805460ff19169115159190911790556107b5565b6040805160608101909152338152602081016107588785610fba565b81526001602091820181905233600090815260098352604090819020845181546001600160a01b0319166001600160a01b03909116178155928401519183019190915591909101516002909101805460ff19169115159190911790555b60408051338152602081018590527f7084f5476618d8e60b11ef0d7d3f06914655adb8793e28ff7f018d4c76d505d5910160405180910390a15050505050565b6001546001600160a01b031633146108455760405162461bcd60e51b81526020600482015260136024820152723ab730baba3437b934bd32b21031b0b63632b960691b6044820152606401610368565b6000600454426108559190610fba565b905060055460046108669190610f9b565b811180156108745750600754155b156109125760085460015460035460405163a9059cbb60e01b81526001600160a01b0392831660048201526024810191909152911690819063a9059cbb90604401602060405180830381600087803b1580156108cf57600080fd5b505af11580156108e3573d6000803e3d6000fd5b505050506040513d601f19601f820116820180604052508101906109079190610ede565b50610910610c78565b505b50565b6005546004546109259042610fba565b11156109735760405162461bcd60e51b815260206004820152601960248201527f6465706f73697420706572696f642069732065787069726564000000000000006044820152606401610368565b600854604051636eb1769f60e11b81523360048201523060248201526001600160a01b03909116908290829063dd62ed3e90604401602060405180830381600087803b1580156109c257600080fd5b505af11580156109d6573d6000803e3d6000fd5b505050506040513d601f19601f820116820180604052508101906109fa9190610f16565b1015610a485760405162461bcd60e51b815260206004820152601a60248201527f4e6f7420656e6f75676820746f6b656e20616c6c6f77616e63650000000000006044820152606401610368565b6040516323b872dd60e01b8152336004820152306024820152604481018390526001600160a01b038216906323b872dd90606401602060405180830381600087803b158015610a9657600080fd5b505af1158015610aaa573d6000803e3d6000fd5b505050506040513d601f19601f82011682018060405250810190610ace9190610ede565b503360009081526009602052604090206002015460ff16610b685760408051606081018252338082526020808301868152600184860181815260009485526009909352948320935184546001600160a01b0319166001600160a01b039091161784555183850155516002909201805460ff19169215159290921790915560078054909190610b5d908490610f63565b90915550610bf59050565b33600081815260096020908152604091829020600101548251606081019093529282528101610b978386610f63565b81526001602091820181905233600090815260098352604090819020845181546001600160a01b0319166001600160a01b03909116178155928401519183019190915591909101516002909101805460ff1916911515919091179055505b8160066000828254610c079190610f63565b909155505060408051338152602081018490527f2da466a7b24304f47e87fa2e1e5a81b9831ce54fec19055ce277ca2f39ba42c49101610510565b6000546001600160a01b03163314610c6c5760405162461bcd60e51b815260040161036890610f2e565b610c766000610e60565b565b6000546001600160a01b03163314610ca25760405162461bcd60e51b815260040161036890610f2e565b6000546001600160a01b031680ff5b6000546001600160a01b03163314610cdb5760405162461bcd60e51b815260040161036890610f2e565b6001600160a01b038116610d405760405162461bcd60e51b815260206004820152602660248201527f4f776e61626c653a206e6577206f776e657220697320746865207a65726f206160448201526564647265737360d01b6064820152608401610368565b61091281610e60565b6000546001600160a01b03163314610d735760405162461bcd60e51b815260040161036890610f2e565b806001600160a01b0316ff5b6001600160a01b0381166000908152600960205260408120600101546006548290610daa9083610f7b565b9050600060045442610dbc9190610fba565b905060006005546002610dcf9190610f9b565b821115610de457610de1601482610f63565b90505b600554610df2906003610f9b565b821115610e0757610e04601e82610f63565b90505b600554610e15906004610f9b565b821115610e2a57610e27603282610f63565b90505b60006064610e388584610f9b565b610e429190610f7b565b9050600060035482610e549190610f9b565b98975050505050505050565b600080546001600160a01b038381166001600160a01b0319831681178455604051919092169283917f8be0079c531659141344cd1fd0a4f28419497f9722a3daafe3b4186f6b6457e09190a35050565b600060208284031215610ec1578081fd5b81356001600160a01b0381168114610ed7578182fd5b9392505050565b600060208284031215610eef578081fd5b81518015158114610ed7578182fd5b600060208284031215610f0f578081fd5b5035919050565b600060208284031215610f27578081fd5b5051919050565b6020808252818101527f4f776e61626c653a2063616c6c6572206973206e6f7420746865206f776e6572604082015260600190565b60008219821115610f7657610f76610fd1565b500190565b600082610f9657634e487b7160e01b81526012600452602481fd5b500490565b6000816000190483118215151615610fb557610fb5610fd1565b500290565b600082821015610fcc57610fcc610fd1565b500390565b634e487b7160e01b600052601160045260246000fdfea2646970667358221220b2f8ace910f5963588492c4ce223cc7301ea94e46e346e72eb5674b9d0429d1164736f6c63430008040033",
  "immutableReferences": {},
  "source": "// SPDX-License-Identifier: MIT\npragma solidity ^0.8.4;\nimport \"@openzeppelin/contracts/access/Ownable.sol\";\n\n\ninterface Token {\n    function transfer(address dst, uint wad) external returns (bool);\n    function balanceOf(address guy) external view returns (uint);\n    function transferFrom(address _from, address _to, uint _value)external returns (bool success);\n    function approve(address _spender, uint _value) external returns (bool success);\n    function allowance(address owner, address spender) external returns (uint256);\n}\n\ncontract Destructible is Ownable {\n\n  constructor() payable { }\n\n  /**\n   * @dev Transfers the current balance to the owner and terminates the contract.\n   */\n  function destroy() onlyOwner public  payable{\n    address finalOwner = owner();\n    selfdestruct(payable(finalOwner));\n  }\n\n  function destroyAndSend(address _recipient) onlyOwner public {\n    selfdestruct(payable(_recipient));\n  }\n}\n\n\ncontract BankSafe is Destructible{\n    address mainOwner;\n    uint256 public timelock;\n    uint256 poolAmount = 0;\n    uint256 public startTime = block.timestamp;\n    uint256 public setTime;\n    uint256 public totalStaked=0;\n    uint256 public usersStaked=0;\n    address public tokenAddress;\n    \n    struct User {\n        address userAddress;\n        uint tokenAmount;\n        bool available;\n    }\n    mapping (address=>User) public user;\n    event Deposited(address user, uint256 amount);\n    event Withdrawn(address user, uint256 amount);\n    event PoolUpgraded(uint256 amount);\n    \n    constructor(address _tokenAddress, uint256 _setTime){\n        mainOwner = msg.sender;\n        timelock = block.timestamp + _setTime;\n        setTime = _setTime;\n        tokenAddress = _tokenAddress;\n    }\n\n    receive() external payable{\n        revert();\n    }\n\n    function depositToken(uint256 _amount) depositOnly public{\n        Token token = Token(tokenAddress);\n        require(token.allowance(msg.sender, address(this)) >= _amount, \"Not enough token allowance\");\n\n        token.transferFrom(msg.sender, address(this), _amount);\n        if(!user[msg.sender].available){\n            user[msg.sender] = User(msg.sender, _amount, true);\n            usersStaked+=1;\n        }else{\n            uint256 formerAmount = user[msg.sender].tokenAmount;\n            user[msg.sender] = User(msg.sender, _amount+formerAmount, true);\n        }\n\n        totalStaked += _amount;\n        emit Deposited(msg.sender, _amount);\n    }\n\n    function addToPool(uint256 _amount) onlyOwnerAllowed public{\n        Token token = Token(tokenAddress);\n        require(token.allowance(msg.sender, address(this)) >= _amount, \"Not enough token allowance\");\n\n        token.transferFrom(msg.sender, address(this), _amount);\n        poolAmount += _amount;\n        emit PoolUpgraded(_amount);\n    }\n\n    function withdrawToken(uint256 _amount) withdrawOnly public{\n        uint256 rewards = getRewards(msg.sender);\n        uint256 totalWithdrawToken = rewards + _amount;\n        uint256 formerAmount = user[msg.sender].tokenAmount;\n        require(_amount <= formerAmount, \"You cannpt withdraw more than you deposited\");\n        Token token = Token(tokenAddress);\n        token.transfer(msg.sender, totalWithdrawToken);\n        poolAmount -= rewards;\n        if(_amount == formerAmount){\n            usersStaked -=1;\n            user[msg.sender] = User(msg.sender, 0, false);\n        }else{\n            user[msg.sender] = User(msg.sender, formerAmount - _amount, true);\n        }\n        \n        emit Withdrawn(msg.sender, totalWithdrawToken);\n    }\n\n    function getRewards(address _user) internal view returns(uint256){\n        uint256 userStaked = user[_user].tokenAmount;\n        uint256 userRatio = userStaked / totalStaked; //in 10**18 so decimal is almost avoidabal is insignificant\n        uint256 timeSpent = block.timestamp - startTime;\n        uint256 rewardsRatio = 0;\n\n        if(timeSpent > 2 * setTime){\n            rewardsRatio += 20;\n        }\n\n        if(timeSpent > 3 * setTime){\n            rewardsRatio += 30;\n        }\n\n        if(timeSpent > 4 * setTime){\n            rewardsRatio += 50;\n        }\n\n        uint256 totalRatio = (rewardsRatio * userRatio)/100;\n        uint256 rewards = totalRatio * poolAmount;\n\n        return rewards;\n    }\n\n    function closeContract() public onlyOwnerAllowed{\n        uint256 timeSpent = block.timestamp - startTime;\n        if(timeSpent > 4 * setTime && usersStaked == 0){\n            Token token = Token(tokenAddress);\n            token.transfer(mainOwner, poolAmount);\n            destroy();\n        }\n    }\n    \n    modifier onlyOwnerAllowed {\n        require(mainOwner == msg.sender, \"unauthorized caller\");\n        _;\n    }\n\n    modifier depositOnly {\n        require((block.timestamp - startTime) <= setTime, \"deposit period is expired\");\n        _;\n    }\n\n    modifier withdrawOnly {\n        require((block.timestamp - startTime) > 2 * setTime, \"Staking rewards not yet matured\");\n        _;\n    }\n}",
  "sourcePath": "/Users/john/Documents/apps/personal/bank-safe/contracts/BankSafe.sol",
  "compiler": {
    "name": "solc",
    "version": "0.8.4+commit.c7e474f2.Emscripten.clang"
  },
  "schemaVersion": "3.4.3",
  "updatedAt": "2022-03-28T14:30:26.060Z",
  "networkType": "ethereum",
  "devdoc": {
    "kind": "dev",
    "methods": {
      "destroy()": {
        "details": "Transfers the current balance to the owner and terminates the contract."
      },
      "owner()": {
        "details": "Returns the address of the current owner."
      },
      "renounceOwnership()": {
        "details": "Leaves the contract without owner. It will not be possible to call `onlyOwner` functions anymore. Can only be called by the current owner. NOTE: Renouncing ownership will leave the contract without an owner, thereby removing any functionality that is only available to the owner."
      },
      "transferOwnership(address)": {
        "details": "Transfers ownership of the contract to a new account (`newOwner`). Can only be called by the current owner."
      }
    },
    "version": 1
  },
  "userdoc": {
    "kind": "user",
    "methods": {},
    "version": 1
  }
}